:100000000C9462000C948A000C948A000C948A0070
:100010000C948A000C948A000C948A000C948D0530
:100020000C948A000C948A000C948A000C948A0028
:100030000C948A000C948A000C948A000C948A0018
:100040000C9443050C948A000C948A000C948A004A
:100050000C948A000C948A000C948A000C948A00F8
:100060000C94B4050C948A00000000080002010002
:100070000003040700000000000000000000000072
:10008000240027002A000000000023002600290089
:1000900000000000250028002B00040404040404D0
:1000A0000404020202020202030303030303010227
:1000B00004081020408001020408102001020408F6
:1000C0001020E20611241FBECFEFD8E0DEBFCDBF67
:1000D00011E0A0E0B1E0E0E6F3E102C005900D928E
:1000E000AC34B107D9F722E0ACE4B1E001C01D9215
:1000F000AA31B207E1F710E0C2E6D0E004C02197D0
:10010000FE010E947608C136D107C9F70E94140784
:100110000C94AE090C9400002091F0019091EF0135
:10012000213208F04AC08091CC018111FCCF32E02D
:100130003093CC0131E03093CB013FEF3093CA01D3
:100140001092C9012093C801AFECB1E048EA51E038
:10015000FA013E2F341B321718F43D913193F9CF39
:100160001092A7012091A701990F922B9093A701BC
:100170009091A601913061F41092A6019091A7018F
:100180009093BB009091BC0093FDF8CF95EC01C01B
:1001900095EE9093BC009091CC019230E1F3909158
:1001A000CA019F3F79F08091CA01803241F080916D
:1001B000CA01803331F084E005C081E003C082E0F1
:1001C00001C083E01092CE011092F0011092CD0197
:1001D0000895CF92DF92EF92FF920F931F93CF93E8
:1001E000DF936C017A018B01C0E0D0E0CE15DF0512
:1001F00089F0D8016D918D01D601ED91FC910190AE
:10020000F081E02DC6010995892B11F47E0102C011
:100210002196ECCFC701DF91CF911F910F91FF90F5
:10022000EF90DF90CF90089590E0FC01E859FF4FE8
:100230003491FC01E255FF4F2491FC01E656FF4F3B
:10024000E491EE2309F43BC0332339F1333091F0CC
:1002500038F43130A9F0323001F584B58F7D12C009
:10026000373091F03830A1F03430B9F4809180000B
:100270008F7D03C0809180008F77809380000DC0B8
:1002800084B58F7784BD09C08091B0008F7703C09B
:100290008091B0008F7D8093B000F0E0EE0FFF1FE3
:1002A000E057FF4FA591B4918FB7F894EC9161118D
:1002B00003C020952E2301C02E2B2C938FBF0895B1
:1002C0003FB7F8948091A0019091A101A091A20163
:1002D000B091A30126B5A89B05C02F3F19F0019648
:1002E000A11DB11D3FBFBA2FA92F982F8827820FBC
:1002F000911DA11DB11DBC01CD0142E0660F771F0C
:10030000881F991F4A95D1F708958F929F92AF92B7
:10031000BF92CF92DF92EF92FF926B017C010E941D
:1003200060014B015C01C114D104E104F104F1F05E
:100330000E946001DC01CB0188199909AA09BB0957
:10034000883E9340A105B10570F321E0C21AD1089F
:10035000E108F10888EE880E83E0981EA11CB11C0C
:10036000C114D104E104F10419F7DDCFFF90EF903F
:10037000DF90CF90BF90AF909F908F90089521E035
:1003800001C0220F6A95EAF7DC011C962C931C979A
:100390001A965C934E931997ED91FC910084F18528
:1003A000E02D60E00994DC01ED91FC910284F3857D
:1003B000E02D41E0099581E090E00895DC01ED91A8
:1003C000FC910284F385E02D40E009940F931F9384
:1003D000CF93DF93EC01423018F08C8188608C83DE
:1003E0004F836887222329F0413019F48C8184607F
:1003F0008C8364E670E080E090E00E9485016C816F
:1004000064FD31C0E881F9810284F385E02D42E08A
:1004100063E0CE0109958BE496E40197F1F7E8815A
:10042000F9810284F385E02D42E063E0CE01099575
:1004300003E512E0C8010197F1F7E881F981028430
:10044000F385E02D42E063E0CE010995C8010197F4
:10045000F1F7E881F9810284F385E02D42E062E062
:10046000CE01099517C06062CE010E94DE018BE4C7
:1004700096E40197F1F76C816062CE010E94DE0183
:1004800003E512E0C8010197F1F76C816062CE01CB
:100490000E94DE01C8010197F1F76C816062CE0114
:1004A0000E94DE018BEE90E00197F1F784E08D83EE
:1004B0006CE0CE010E94DE0161E0CE010E94DE010F
:1004C0008BE39FE10197F1F782E08E8366E0CE0136
:1004D0000E94DE01E881F9810084F185E02D6FEF53
:1004E000CE01DF91CF911F910F9109940895089546
:1004F00085ED8093BC008091BC0084FDFCCF109200
:10050000CC01089540917201262F30E0240F311D57
:1005100021323105DCF42091CC012430C9F4FC01F6
:1005200080E090E0861758F4309172012191DC014F
:10053000A05BBE4FA30FB11D2C930196F3CF80910A
:100540007201680F6093720180E0089581E0089560
:1005500082E00895089581E090E030919801209123
:100560009701321710F480E090E091958195910900
:1005700008958091980190919701891730F48F5FC9
:100580008093980180E090E008958FEF9FEF0895A9
:100590008091970190E020919801821B9109089524
:1005A000CF92DF92EF92FF920F931F93CF93DF933F
:1005B0007C01262F972F8A018091CD01882391F00D
:1005C000C62FD72F6E01C40ED51ECC15DD0571F0D8
:1005D0006991D701ED91FC910190F081E02DC70167
:1005E0000995F3CF642F822F0E948202C801DF9108
:1005F000CF911F910F91FF90EF90DF90CF900895D2
:10060000CF93DF931F92CDB7DEB769832091CD01E1
:100610002223D1F02091F001203240F021E030E09F
:10062000FC013383228380E090E015C08091CE01ED
:10063000E82FF0E0E153FE4F998190838F5F809324
:10064000CE018093F00105C061E0CE0101960E94C9
:10065000820281E090E00F90DF91CF910895FC013C
:1006600023812223B9F0918190956923608382814F
:1006700091E09093CD018093EF011092CE01109202
:10068000F00181EF91E00E9400030E948C00282F6E
:1006900030E002C020E030E081E090E0232B11F058
:1006A00080E090E00895EF92FF920F931F93CF9315
:1006B0008C01FC01759684E0C0E060FF02C090816F
:1006C000C92B6695815031968111F7CF413011F4D5
:1006D000F8014489F8018585C82BC42B7801FEE018
:1006E000EF0EF11CF80162896C2BC7010E942F03E9
:1006F000F801628960956C23C701CF911F910F911A
:10070000FF90EF900C942F030F931F93CF93DF93E1
:10071000062F0F70423019F440E0602F10C0142FE4
:10072000262FEC0130E0B90184E0759567958A9534
:10073000E1F7CE010E945303412F602FCE01DF91DC
:10074000CF911F910F910C945303FC018485882352
:10075000A9F0218532852115310519F4611106C0F2
:1007600007C02130310521F4611102C0858701C025
:1007700015866585CF010E960C942F030895EF9290
:10078000FF920F931F93CF93DF93EC01062FF42E6C
:10079000E22E8B85888B109298011092970110920F
:1007A000CE011092F0011092CC0111E01093CB0118
:1007B0001092A60161E082E10E94140161E083E1F0
:1007C0000E9414018091B9008E7F8093B9008091BE
:1007D000B9008D7F8093B90088E48093B80085E4E8
:1007E0008093BC0088891093CD018093EF01109213
:1007F000CE011092F0010E948C0091E0811190E0F6
:10080000998B992329F081EF91E00E94B9028E879C
:100810008989882339F01F861C8260E0CE010E96FC
:100820000E942F032E2D4F2D602FCE01DF91CF91EF
:100830001F910F91FF90EF900C94E601009769F0E3
:10084000FC0101900020E9F73197AF01481B590BDB
:10085000BC018DEF91E00C94E90080E090E00895F8
:100860008F929F92AF92BF920F931F93CF93DF937C
:10087000CDB7DEB7A1970FB6F894DEBF0FBECDBFE0
:1008800019A2423008F44AE08E010F5D1F4F842EFA
:10089000912CA12CB12CA50194010E945408E62FA3
:1008A000B901CA0101501109EA3014F4E05D01C038
:1008B000E95CD801EC93232B242B252B61F7C8018D
:1008C0000E941E04A1960FB6F894DEBF0FBECDBFE6
:1008D000DF91CF911F910F91BF90AF909F908F901C
:1008E00008954F925F926F927F929F92AF92BF92C4
:1008F000CF92DF92EF92FF920F931F93CF93DF93EC
:100900007C0184E1982E00E010E09BE0C92ED12C00
:1009100023E2A22EB12C39E3432E512C612C712CF1
:10092000F701C281D381EA85FB8590818C81892B77
:100930008083EE81FF8190818C81809589238083E3
:10094000C6010197F1F7EE81FF8190818C81892B9F
:100950008083C5010197F1F7EE81FF8190818C8141
:10096000809589238083EA85FB8590818C818095A1
:1009700089238083E885F98590818D81892309F019
:1009800056C00E9460012C853D8540E050E028550E
:10099000394E4F4F5F4FDC01CB01820F931FA41FD5
:1009A000B51F8E879F87A88BB98BE885F9859081C5
:1009B0008D81892361F40E9460012E853F854889DD
:1009C0005989261737074807590778F730C00E941A
:1009D00060012C853D85DC01CB01820F931FA11D99
:1009E000B11D8E879F87A88BB98BE885F98590818B
:1009F0008D81892361F00E9460012E853F854889A1
:100A00005989261737074807590778F710C00E94F9
:100A100060012C853D85A901455051092E853F85F2
:100A2000FA01E21BF30BAF01460F571F02C040E073
:100A300050E0BA0180E090E0A30192010E945408C6
:100A4000020F131F64E170E080E090E00E948501D6
:100A50009A94911065CFC80163E170E00E9440084C
:100A6000CB01DF91CF911F910F91FF90EF90DF901D
:100A7000CF90BF90AF909F907F906F905F904F907E
:100A800008950E94A9091F920F920FB60F92112488
:100A90002F933F938F939F93AF93BF9380919C012C
:100AA00090919D01A0919E01B0919F0130919B0179
:100AB00023E0230F2D3720F40196A11DB11D05C0A1
:100AC00026E8230F0296A11DB11D20939B01809360
:100AD0009C0190939D01A0939E01B0939F018091F2
:100AE000A0019091A101A091A201B091A301019652
:100AF000A11DB11D8093A0019093A101A093A2011B
:100B0000B093A301BF91AF919F918F913F912F918E
:100B10000F900FBE0F901F9018951F920F920FB657
:100B20000F9211242F933F934F935F936F937F9373
:100B30008F939F93AF93BF93EF93FF93E0919901AE
:100B4000F0919A010995FF91EF91BF91AF919F911B
:100B50008F917F916F915F914F913F912F910F9066
:100B60000FBE0F901F9018951F920F920FB60F9205
:100B700011242F933F934F935F936F937F938F93A2
:100B80009F93AF93BF93EF93FF938091B900887FBA
:100B9000803609F49CC068F5883209F45BC090F493
:100BA000803109F454C038F4882309F4F6C0883041
:100BB00009F44DC0F6C0883109F44CC0803209F404
:100BC0005DC0EFC0803409F468C048F4803309F494
:100BD00055C0883309F0E5C08093CA01D8C080357C
:100BE00009F44FC0883509F45DC0883409F0D9C0D4
:100BF000D6C0883909F4C7C0A8F4883709F467C09B
:100C000038F4883609F463C0803709F460C0C9C07D
:100C1000883809F4B8C0803909F45FC0803809F019
:100C2000C0C05BC0803B09F486C038F4803A09F448
:100C300066C0883A09F47FC0B4C0803C09F4A7C0FC
:100C4000883C09F4A4C0883B09F48AC0AAC08091FA
:100C5000A70110C09091C9018091C801981770F543
:100C6000E091C90181E08E0F8093C901F0E0E85561
:100C7000FE4F80818093BB0085EC86C08093CA01C3
:100C80008EC0E091C90181E08E0F8093C9018091EF
:100C9000BB00F0E0E855FE4F80839091C901809140
:100CA000C8016EC0E091C90181E08E0F8093C90137
:100CB0008091BB00F0E0E855FE4F80838091CB012E
:100CC00081116DC081E08093A60184EA61C083E058
:100CD0008093CC0110929601CFCF80919601803203
:100CE00008F051C0E091960181E08E0F809396014B
:100CF0008091BB00F0E0EA58FE4F8083BDCF85ECC9
:100D00008093BC001092CC0180919601803230F427
:100D1000E0919601F0E0EA58FE4F10826091960152
:100D200070E0E0917401F091750186E791E009951A
:100D30001092960136C084E08093CC01109273012A
:100D400010927201E0917001F0917101099580910A
:100D50007201811105C081E08093720110925001EF
:100D6000E091730181E08E0F80937301F0E0E05B0E
:100D7000FE4F80818093BB0090917301809172013E
:100D8000981708F479CF85E88093BC000AC085ECF9
:100D90008093BC001092CC0104C01092CA010E9442
:100DA0007802FF91EF91BF91AF919F918F917F91C9
:100DB0006F915F914F913F912F910F900FBE0F90C8
:100DC0001F901895E1EFF1E01382128288EE93E014
:100DD000A0E0B0E084839583A683B78380E191E0AF
:100DE00091838083EDEFF1E01382128280E291E043
:100DF00091838083108A8FEF87871686118A87E216
:100E00008387148615861286118684E0828B82E0A1
:100E1000838B81E0848B80E1858B80E2868B80E40C
:100E2000878B80E8808F0895CF93DF93CDB7DEB7AF
:100E300028970FB6F894DEBF0FBECDBF789484B567
:100E4000826084BD84B5816084BD85B5826085BDC6
:100E500085B5816085BD80916E00816080936E0054
:100E60001092810080918100826080938100809146
:100E700081008160809381008091800081608093F7
:100E800080008091B10084608093B1008091B000B7
:100E900081608093B00080917A00846080937A00B2
:100EA00080917A00826080937A0080917A008160DC
:100EB00080937A0080917A00806880937A00109203
:100EC000C10020E042E060E18DEF91E00E94BF03AD
:100ED00040E050E063E08DEF91E00E94BF0161E0EF
:100EE0008DEF91E00E94A50384E090E00E947C08D1
:100EF0008C018AE091E0D8018D939C9382E190E08F
:100F00000E947C08DC01E8EBF0E0E4911496EC939D
:100F10001497E9EBF0E0E4911596EC93159724EA29
:100F200030E0F9018491E82FF0E0EE0FFF1FE05769
:100F3000FF4F8591949117969C938E931697E5EAAF
:100F4000F0E0E491F0E0EE0FFF1FEA57FF4F8591CC
:100F5000949119969C938E931897F9012491E22FFE
:100F6000F0E0EE0FFF1FE458FF4F859194911B9620
:100F70009C938E931A9781EC9CE21D969C938E9382
:100F80001C97F801B383A2831093A5010093A401D9
:100F90007BE3C72E7FE1D72EE0E0AE2EE0E0BE2E51
:100FA000F0E4FF2EA4E1EA2E84E5982E90E1892E4C
:100FB00020E5722E8091A4019091A501DC01ED91B4
:100FC000FC910190F081E02D09958C0162E08DEF9C
:100FD00091E00E94DE01C6010197F1F78CE291E0F9
:100FE0000E941E040A30110530F44AE060E070E00F
:100FF000CB010E943004C801A0E0B0E04AE0BC018F
:10100000CD010E94300487E391E00E941E041D82FE
:10101000FE82EF8298861982FA828B827C8280918E
:101020000402803118F42FEF280F01C02FE09091B7
:10103000050230E0903129F4843019F4E1E0F0E069
:1010400002C0E5E0F0E0EC0FFD1FE20FF31F60814E
:1010500060688DEF91E00E94DE01055011090630B5
:10106000110518F08CE391E002C084E491E00E9445
:101070001E04A114B10409F49DCF0E94000094CF76
:10108000AA1BBB1B51E107C0AA1FBB1FA617B707AE
:1010900010F0A61BB70B881F991F5A95A9F78095CA
:1010A0009095BC01CD010895A1E21A2EAA1BBB1B8D
:1010B000FD010DC0AA1FBB1FEE1FFF1FA217B30724
:1010C000E407F50720F0A21BB30BE40BF50B661F3A
:1010D000771F881F991F1A9469F7609570958095FE
:1010E00090959B01AC01BD01CF010895EE0FFF1F4C
:1010F0000590F491E02D0994CF93DF938230910510
:1011000010F482E090E0E0911802F091190220E0E2
:1011100030E0C0E0D0E0309711F1408151814817B4
:101120005907C0F04817590761F4828193812097CD
:1011300019F09B838A832BC0909319028093180225
:1011400026C02115310519F04217530718F49A01EA
:10115000BE01DF01EF010280F381E02DDCCF21151C
:10116000310509F1281B390B2430310590F4129612
:101170008D919C9113976115710521F0FB0193836B
:10118000828304C09093190280931802FD01329665
:1011900044C0FD01E20FF31F819391932250310966
:1011A0002D933C933AC02091160230911702232BC5
:1011B00041F42091020130910301309317022093F2
:1011C000160220910001309101012115310541F4F1
:1011D0002DB73EB74091040150910501241B350BFA
:1011E000E0911602F0911702E217F307A0F42E1B0C
:1011F0003F0B2817390778F0AC014E5F5F4F24177B
:10120000350748F04E0F5F1F5093170240931602A8
:101210008193919302C0E0E0F0E0CF01DF91CF91A4
:1012200008950F931F93CF93DF93009709F48CC019
:10123000FC01329713821282009118021091190258
:101240000115110581F420813181820F931F2091B6
:101250001602309117022817390779F5F093170213
:10126000E093160271C0D80140E050E0AE17BF070E
:1012700050F412962D913C911397AD012115310533
:1012800009F1D901F3CF9D01DA0133832283608113
:101290007181860F971F8217930769F4EC012881EB
:1012A0003981260F371F2E5F3F4F318320838A817C
:1012B0009B8193838283452B29F4F0931902E09359
:1012C000180242C01396FC93EE931297ED014991D8
:1012D00059919E01240F351FE217F30771F48081A5
:1012E0009181840F951F029611969C938E93828113
:1012F000938113969C938E931297E0E0F0E0D801CF
:1013000012968D919C911397009719F0F8018C011A
:10131000F6CF8D919C9198012E5F3F4F820F931FC6
:1013200020911602309117022817390769F4309777
:1013300029F4109219021092180202C0138212822C
:101340001093170200931602DF91CF911F910F9116
:10135000089581E090E0F8940C94AE09F894FFCFE2
:1013600000001A028000000000007104000000006C
:101370000003D002C802B902AB02AA0200000000BA
:10138000D301E900BF03BF01A5038403446973745B
:10139000616E63653A200020636D2E0053544F50F8
:0C13A000212121002020202020202000FE
:00000001FF
